:03000000020837BC
:0C083700787FE4F6D8FD75815102087E40
:1008C300C100183AFFFFFF00FF00AAFF00FFFF006F
:1008D300FF00000000000000FF00AAFF182155558B
:1008E30055005500AAFF00FFFF005500000000005F
:0608F30000005500AAFF01
:10000300D2AFD2AC759850438E0475D7F775D6FD31
:07001300438E01438E102211
:1006F500EF24FE6054147003020788147003020788
:10070500C11470030207FA24046003020836ED647D
:1007150001701BD2910000000000000000000000E5
:10072500000000000000000000C291020831D291D3
:100735000000000000C29100000000000000000061
:10074500000000000000020831ED6401701AD2902B
:100755000000000000000000000000000000000094
:1007650000000000C2908018D2900000000000C276
:1007750090000000000000000000000000000000E4
:10078500020831ED6401701AD292000000000000E9
:100795000000000000000000000000000000C29200
:1007A5008018D2920000000000C2920000000000F4
:1007B500000000000000000000008070ED64017082
:1007C5001AD29300000000000000000000000000A5
:1007D50000000000000000C2938018D293000000C2
:1007E5000000C293000000000000000000000000AF
:1007F5000000008037ED6401701AD29400000000FB
:1008050000000000000000000000000000000000E3
:10081500C2948018D2940000000000C29400000029
:1008250000000000000000000000000000000000C3
:0208350000229F
:0408FA00AD087F05C1
:0408FE00AE05A90793
:10090200E4FCE975F003A4243A2CF8E6FBE4FAEBE4
:1009120025E0FBAF06E433FD1206F50ABA08F00C37
:03092200BC03DF34
:0109250022AF
:04092600AE05A9076A
:10092A00E4FCE975F003A424212CF8E6FBE4FAEBD5
:10093A0025E0FBAF06E433FD1206F50ABA08F00C0F
:03094A00BC03DF0C
:01094D002287
:100026002000030206F4C200E53912094E012D0034
:10003600014901015D02017103018504019906016F
:10004600AD0701C10801D50901E90A01FD0B02113D
:100056000C02250D02390E024D0F026114027D15A8
:1000660002911602A51702B91802CD1902E11A0269
:10007600F51B03091C031D1D03311E03451F0359F0
:1000860020036D2103812203952803B12903C52A84
:1000960003D92B03ED2C04012D04152E04292F045E
:1000A6003D30045131046532047933048D3404A1A2
:1000B6003504B53604C93C04E53D04F93E050D3F5B
:1000C600052140053541054942055D430571440555
:1000D600854505994605AD4705C14805D54905E954
:1000E6004A05FD50061951062D5206415306555430
:1000F600066955067D5606915706A55806B959064E
:10010600CD5C06E15D011263000006F4750801E4AA
:10011600F5091208FA0509E509C394F040F4050843
:10012600E508D3940540E8750801E4F5091208FAD4
:100136000509E509C394F040F40508E508D39401E0
:1001460040E822E4F5097D01E4FF1208FE0509E511
:1001560009C394F040F022E4F5097D017F011208FD
:10016600FE0509E509C394F040F022E4F5097D0196
:100176007F021208FE0509E509C394F040F022E467
:10018600F5097D017F031208FE0509E509C394F010
:1001960040F022E4F5097D017F041208FE0509E519
:1001A60009C394F040F022E4F5097D017F061208A8
:1001B600FE0509E509C394F040F022E4F5097D0146
:1001C6007F071208FE0509E509C394F040F022E412
:1001D600F5097D01E4FF1209260509E509C394F036
:1001E60040F022E4F5097D017F011209260509E5A3
:1001F60009C394F040F022E4F5097D017F0212095B
:10020600260509E509C394F040F022E4F5097D01CD
:100216007F031209260509E509C394F040F022E49C
:10022600F5097D017F041209260509E509C394F045
:1002360040F022E4F5097D017F061209260509E54D
:1002460009C394F040F022E4F5097D017F07120905
:10025600260509E509C394F040F0227508027509E0
:10026600011208FA0509E509C394F040F40508E50A
:1002760008D3940240E822E4F5097D02E4FF12085F
:10028600FE0509E509C394F040F022E4F5097D0274
:100296007F011208FE0509E509C394F040F022E447
:1002A600F5097D027F021208FE0509E509C394F0EF
:1002B60040F022E4F5097D027F031208FE0509E5F8
:1002C60009C394F040F022E4F5097D027F04120888
:1002D600FE0509E509C394F040F022E4F5097D0224
:1002E6007F061208FE0509E509C394F040F022E4F2
:1002F600F5097D027F071208FE0509E509C394F09A
:1003060040F022E4F5097D02E4FF1209260509E51D
:1003160009C394F040F022E4F5097D027F01120939
:10032600260509E509C394F040F022E4F5097D02AB
:100336007F021209260509E509C394F040F022E47C
:10034600F5097D027F031209260509E509C394F024
:1003560040F022E4F5097D027F041209260509E52D
:1003660009C394F040F022E4F5097D027F061209E4
:10037600260509E509C394F040F022E4F5097D025B
:100386007F071209260509E509C394F040F0227596
:1003960008037509011208FA0509E509C394F04036
:1003A600F40508E508D3940340E822E4F5097D0343
:1003B600E4FF1208FE0509E509C394F040F022E4C3
:1003C600F5097D037F011208FE0509E509C394F0CE
:1003D60040F022E4F5097D037F021208FE0509E5D7
:1003E60009C394F040F022E4F5097D037F03120867
:1003F600FE0509E509C394F040F022E4F5097D0302
:100406007F041208FE0509E509C394F040F022E4D2
:10041600F5097D037F061208FE0509E509C394F078
:1004260040F022E4F5097D037F071208FE0509E581
:1004360009C394F040F022E4F5097D03E4FF1209B4
:10044600260509E509C394F040F022E4F5097D0389
:100456007F011209260509E509C394F040F022E45C
:10046600F5097D037F021209260509E509C394F003
:1004760040F022E4F5097D037F031209260509E50C
:1004860009C394F040F022E4F5097D037F041209C4
:10049600260509E509C394F040F022E4F5097D0339
:1004A6007F061209260509E509C394F040F022E407
:1004B600F5097D037F071209260509E509C394F0AE
:1004C60040F0227508047509011208FA0509E509C4
:1004D600C394F040F40508E508D3940440E822E408
:1004E600F5097D04E4FF1208FE0509E509C394F049
:1004F60040F022E4F5097D047F011208FE0509E5B6
:1005060009C394F040F022E4F5097D047F02120845
:10051600FE0509E509C394F040F022E4F5097D04DF
:100526007F031208FE0509E509C394F040F022E4B2
:10053600F5097D047F041208FE0509E509C394F058
:1005460040F022E4F5097D047F061208FE0509E560
:1005560009C394F040F022E4F5097D047F071208F0
:10056600FE0509E509C394F040F022E4F5097D048F
:10057600E4FF1209260509E509C394F040F022E4D8
:10058600F5097D047F011209260509E509C394F0E2
:1005960040F022E4F5097D047F021209260509E5EB
:1005A60009C394F040F022E4F5097D047F031209A3
:1005B600260509E509C394F040F022E4F5097D0417
:1005C6007F041209260509E509C394F040F022E4E8
:1005D600F5097D047F061209260509E509C394F08D
:1005E60040F022E4F5097D047F071209260509E596
:1005F60009C394F040F0227508057509011208FA3E
:100606000509E509C394F040F40508E508D3940507
:1006160040E822E4F5097D05E4FF1208FE0509E538
:1006260009C394F040F022E4F5097D057F01120824
:10063600FE0509E509C394F040F022E4F5097D05BD
:100646007F021208FE0509E509C394F040F022E492
:10065600F5097D057F031208FE0509E509C394F037
:1006660040F022E4F5097D057F041208FE0509E540
:1006760009C394F040F022E4F5097D057F061208CF
:10068600FE0509E509C394F040F022E4F5097D056D
:100696007F071208FE0509E509C394F040F022E43D
:1006A600F5097D05E4FF1209260509E509C394F05D
:1006B60040F022E4F5097D057F011209260509E5CA
:1006C60009C394F040F022E4F5097D057F04120980
:1006D600260509E509C394F040F022E4F5097D05F5
:0E06E6007F061209260509E509C394F040F0CD
:0106F40022E3
:0300230002001ABE
:08001A00C298859939D2003229
:0809740012000312002680FBB3
:10084300020974E493A3F8E493A34003F68001F24E
:1008530008DFF48029E493A3F85407240CC8C333B6
:10086300C4540F4420C8834004F456800146F6DF85
:10087300E4800B01020408102040809008C3E47E4A
:10088300019360BCA3FF543F30E509541FFEE4937A
:10089300A360010ECF54C025E060A840B8E493A341
:1008A300FAE493A3F8E493A3C8C582C8CAC583CA6C
:1008B300F0A3C8C582C8CAC583CADFE9DEE780BE24
:0108F90000FE
:10094E00D083D082F8E4937012740193700DA3A338
:10095E0093F8740193F5828883E47374029368604C
:06096E00EFA3A3A380DF4C
:00000001FF
